{
  "contractName": "election",
  "abi": [
    {
      "constant": true,
      "inputs": [
        {
          "name": "",
          "type": "uint256"
        }
      ],
      "name": "candidates",
      "outputs": [
        {
          "name": "id",
          "type": "uint256"
        },
        {
          "name": "name",
          "type": "string"
        },
        {
          "name": "voteCount",
          "type": "uint256"
        }
      ],
      "payable": false,
      "stateMutability": "view",
      "type": "function",
      "signature": "0x3477ee2e"
    },
    {
      "constant": true,
      "inputs": [],
      "name": "candidateCount",
      "outputs": [
        {
          "name": "",
          "type": "uint256"
        }
      ],
      "payable": false,
      "stateMutability": "view",
      "type": "function",
      "signature": "0xa9a981a3"
    },
    {
      "constant": false,
      "inputs": [
        {
          "name": "_name",
          "type": "string"
        }
      ],
      "name": "addCandidate",
      "outputs": [],
      "payable": false,
      "stateMutability": "nonpayable",
      "type": "function",
      "signature": "0x462e91ec"
    }
  ],
  "bytecode": "0x608060405234801561001057600080fd5b50610426806100206000396000f3fe608060405260043610610057576000357c0100000000000000000000000000000000000000000000000000000000900463ffffffff1680633477ee2e1461005c578063462e91ec1461011e578063a9a981a3146101e6575b600080fd5b34801561006857600080fd5b506100956004803603602081101561007f57600080fd5b8101908080359060200190929190505050610211565b6040518084815260200180602001838152602001828103825284818151815260200191508051906020019080838360005b838110156100e15780820151818401526020810190506100c6565b50505050905090810190601f16801561010e5780820380516001836020036101000a031916815260200191505b5094505050505060405180910390f35b34801561012a57600080fd5b506101e46004803603602081101561014157600080fd5b810190808035906020019064010000000081111561015e57600080fd5b82018360208201111561017057600080fd5b8035906020019184600183028401116401000000008311171561019257600080fd5b91908080601f016020809104026020016040519081016040528093929190818152602001838380828437600081840152601f19601f8201169050808301925050505050505091929192905050506102d3565b005b3480156101f257600080fd5b506101fb61034f565b6040518082815260200191505060405180910390f35b6000602052806000526040600020600091509050806000015490806001018054600181600116156101000203166002900480601f0160208091040260200160405190810160405280929190818152602001828054600181600116156101000203166002900480156102c35780601f10610298576101008083540402835291602001916102c3565b820191906000526020600020905b8154815290600101906020018083116102a657829003601f168201915b5050505050908060020154905083565b60016000815480929190600101919050555060606040519081016040528060015481526020018281526020016000815250600080600154815260200190815260200160002060008201518160000155602082015181600101908051906020019061033e929190610355565b506040820151816002015590505050565b60015481565b828054600181600116156101000203166002900490600052602060002090601f016020900481019282601f1061039657805160ff19168380011785556103c4565b828001600101855582156103c4579182015b828111156103c35782518255916020019190600101906103a8565b5b5090506103d191906103d5565b5090565b6103f791905b808211156103f35760008160009055506001016103db565b5090565b9056fea165627a7a72305820425aa81cce0c4a7b3bef7c882dccb216e66d41cc6ce2172e2c59ddfc0e6501bb0029",
  "source": "pragma solidity 0.5.0;\r\n\r\n\r\ncontract election {\r\n\r\n    struct Candidate {\r\n        uint id;\r\n        string name;\r\n        uint voteCount;\r\n    }\r\n\r\n    mapping(uint => Candidate) public candidates; \r\n\r\n    uint public candidateCount;\r\n\r\n    function addCandidate(string memory _name) public {\r\n        candidateCount++;\r\n        candidates[candidateCount] = Candidate(candidateCount,_name,0);\r\n    }\r\n\r\n}",
  "sourcePath": "G:/Blockchain/Ethereum Projects/Voting DApp/contracts/election.sol",
  "compiler": {
    "name": "solc",
    "version": "0.5.0+commit.1d4f565a.Emscripten.clang"
  },
  "schemaVersion": "3.0.1",
  "updatedAt": "2019-08-06T19:49:24.096Z",
  "devdoc": {
    "methods": {}
  },
  "userdoc": {
    "methods": {}
  }
}