{
  "contractName": "election",
  "abi": [
    {
      "constant": true,
      "inputs": [],
      "name": "votingStatus",
      "outputs": [
        {
          "name": "",
          "type": "bool"
        }
      ],
      "payable": false,
      "stateMutability": "view",
      "type": "function",
      "signature": "0x19f41a40"
    },
    {
      "constant": true,
      "inputs": [
        {
          "name": "",
          "type": "uint256"
        }
      ],
      "name": "candidates",
      "outputs": [
        {
          "name": "id",
          "type": "uint256"
        },
        {
          "name": "name",
          "type": "string"
        },
        {
          "name": "voteCount",
          "type": "uint256"
        }
      ],
      "payable": false,
      "stateMutability": "view",
      "type": "function",
      "signature": "0x3477ee2e"
    },
    {
      "constant": true,
      "inputs": [],
      "name": "voterCount",
      "outputs": [
        {
          "name": "",
          "type": "uint256"
        }
      ],
      "payable": false,
      "stateMutability": "view",
      "type": "function",
      "signature": "0x42169e48"
    },
    {
      "constant": true,
      "inputs": [],
      "name": "candidateCount",
      "outputs": [
        {
          "name": "",
          "type": "uint256"
        }
      ],
      "payable": false,
      "stateMutability": "view",
      "type": "function",
      "signature": "0xa9a981a3"
    },
    {
      "constant": true,
      "inputs": [
        {
          "name": "",
          "type": "address"
        }
      ],
      "name": "isVoted",
      "outputs": [
        {
          "name": "",
          "type": "bool"
        }
      ],
      "payable": false,
      "stateMutability": "view",
      "type": "function",
      "signature": "0xcbff75cb"
    },
    {
      "constant": true,
      "inputs": [
        {
          "name": "",
          "type": "uint256"
        }
      ],
      "name": "voters",
      "outputs": [
        {
          "name": "id",
          "type": "uint256"
        },
        {
          "name": "name",
          "type": "string"
        },
        {
          "name": "voter",
          "type": "address"
        }
      ],
      "payable": false,
      "stateMutability": "view",
      "type": "function",
      "signature": "0xda58c7d9"
    },
    {
      "constant": true,
      "inputs": [],
      "name": "winner",
      "outputs": [
        {
          "name": "",
          "type": "string"
        }
      ],
      "payable": false,
      "stateMutability": "view",
      "type": "function",
      "signature": "0xdfbf53ae"
    },
    {
      "constant": false,
      "inputs": [
        {
          "name": "_name",
          "type": "string"
        }
      ],
      "name": "addCandidate",
      "outputs": [],
      "payable": false,
      "stateMutability": "nonpayable",
      "type": "function",
      "signature": "0x462e91ec"
    },
    {
      "constant": false,
      "inputs": [
        {
          "name": "_name",
          "type": "string"
        },
        {
          "name": "_address",
          "type": "address"
        }
      ],
      "name": "addVoter",
      "outputs": [],
      "payable": false,
      "stateMutability": "nonpayable",
      "type": "function",
      "signature": "0x5607395b"
    },
    {
      "constant": false,
      "inputs": [],
      "name": "startVoting",
      "outputs": [],
      "payable": false,
      "stateMutability": "nonpayable",
      "type": "function",
      "signature": "0x1ec6b60a"
    },
    {
      "constant": false,
      "inputs": [],
      "name": "stopVoting",
      "outputs": [],
      "payable": false,
      "stateMutability": "nonpayable",
      "type": "function",
      "signature": "0xfab2f86b"
    },
    {
      "constant": false,
      "inputs": [
        {
          "name": "_candidateId",
          "type": "uint256"
        }
      ],
      "name": "castVote",
      "outputs": [],
      "payable": false,
      "stateMutability": "nonpayable",
      "type": "function",
      "signature": "0x3eb76b9c"
    }
  ],
  "bytecode": "0x608060405234801561001057600080fd5b50610d74806100206000396000f3fe6080604052600436106100ba576000357c0100000000000000000000000000000000000000000000000000000000900463ffffffff16806319f41a40146100bf5780631ec6b60a146100ee5780633477ee2e146101055780633eb76b9c146101c757806342169e4814610202578063462e91ec1461022d5780635607395b146102f5578063a9a981a3146103dd578063cbff75cb14610408578063da58c7d914610471578063dfbf53ae1461055f578063fab2f86b146105ef575b600080fd5b3480156100cb57600080fd5b506100d4610606565b604051808215151515815260200191505060405180910390f35b3480156100fa57600080fd5b50610103610618565b005b34801561011157600080fd5b5061013e6004803603602081101561012857600080fd5b8101908080359060200190929190505050610634565b6040518084815260200180602001838152602001828103825284818151815260200191508051906020019080838360005b8381101561018a57808201518184015260208101905061016f565b50505050905090810190601f1680156101b75780820380516001836020036101000a031916815260200191505b5094505050505060405180910390f35b3480156101d357600080fd5b50610200600480360360208110156101ea57600080fd5b8101908080359060200190929190505050610705565b005b34801561020e57600080fd5b5061021761094f565b6040518082815260200191505060405180910390f35b34801561023957600080fd5b506102f36004803603602081101561025057600080fd5b810190808035906020019064010000000081111561026d57600080fd5b82018360208201111561027f57600080fd5b803590602001918460018302840111640100000000831117156102a157600080fd5b91908080601f016020809104026020016040519081016040528093929190818152602001838380828437600081840152601f19601f820116905080830192505050505050509192919290505050610955565b005b34801561030157600080fd5b506103db6004803603604081101561031857600080fd5b810190808035906020019064010000000081111561033557600080fd5b82018360208201111561034757600080fd5b8035906020019184600183028401116401000000008311171561036957600080fd5b91908080601f016020809104026020016040519081016040528093929190818152602001838380828437600081840152601f19601f820116905080830192505050505050509192919290803573ffffffffffffffffffffffffffffffffffffffff1690602001909291905050506109ea565b005b3480156103e957600080fd5b506103f2610ad2565b6040518082815260200191505060405180910390f35b34801561041457600080fd5b506104576004803603602081101561042b57600080fd5b81019080803573ffffffffffffffffffffffffffffffffffffffff169060200190929190505050610ad8565b604051808215151515815260200191505060405180910390f35b34801561047d57600080fd5b506104aa6004803603602081101561049457600080fd5b8101908080359060200190929190505050610af8565b60405180848152602001806020018373ffffffffffffffffffffffffffffffffffffffff1673ffffffffffffffffffffffffffffffffffffffff168152602001828103825284818151815260200191508051906020019080838360005b83811015610522578082015181840152602081019050610507565b50505050905090810190601f16801561054f5780820380516001836020036101000a031916815260200191505b5094505050505060405180910390f35b34801561056b57600080fd5b50610574610be9565b6040518080602001828103825283818151815260200191508051906020019080838360005b838110156105b4578082015181840152602081019050610599565b50505050905090810190601f1680156105e15780820380516001836020036101000a031916815260200191505b509250505060405180910390f35b3480156105fb57600080fd5b50610604610c87565b005b6000809054906101000a900460ff1681565b60016000806101000a81548160ff021916908315150217905550565b60018181548110151561064357fe5b9060005260206000209060030201600091509050806000015490806001018054600181600116156101000203166002900480601f0160208091040260200160405190810160405280929190818152602001828054600181600116156101000203166002900480156106f55780601f106106ca576101008083540402835291602001916106f5565b820191906000526020600020905b8154815290600101906020018083116106d857829003601f168201915b5050505050908060020154905083565b600115156000809054906101000a900460ff1615151415156107b5576040517f08c379a00000000000000000000000000000000000000000000000000000000081526004018080602001828103825260388152602001807f766f74696e67206973206e6f7420696e2070726f67726573732041736b20796f81526020017f75722061646d696e20746f20737461727420766f74696e67000000000000000081525060400191505060405180910390fd5b60001515600660003373ffffffffffffffffffffffffffffffffffffffff1673ffffffffffffffffffffffffffffffffffffffff16815260200190815260200160002060009054906101000a900460ff16151514151561087d576040517f08c379a00000000000000000000000000000000000000000000000000000000081526004018080602001828103825260168152602001807f596f75206861766520616c726561647920766f7465640000000000000000000081525060200191505060405180910390fd5b60008090505b60055481101561094b5760018181548110151561089c57fe5b90600052602060002090600302016000015482141561093e576001818154811015156108c457fe5b9060005260206000209060030201600201600081548092919060010191905055506001600660003373ffffffffffffffffffffffffffffffffffffffff1673ffffffffffffffffffffffffffffffffffffffff16815260200190815260200160002060006101000a81548160ff0219169083151502179055505b8080600101915050610883565b5050565b60045481565b600560008154809291906001019190505550600160606040519081016040528060055481526020018381526020016000815250908060018154018082558091505090600182039060005260206000209060030201600090919290919091506000820151816000015560208201518160010190805190602001906109d9929190610ca3565b506040820151816002015550505050565b600460008154809291906001019190505550600260606040519081016040528060045481526020018481526020018373ffffffffffffffffffffffffffffffffffffffff1681525090806001815401808255809150509060018203906000526020600020906003020160009091929091909150600082015181600001556020820151816001019080519060200190610a83929190610ca3565b5060408201518160020160006101000a81548173ffffffffffffffffffffffffffffffffffffffff021916908373ffffffffffffffffffffffffffffffffffffffff1602179055505050505050565b60055481565b60066020528060005260406000206000915054906101000a900460ff1681565b600281815481101515610b0757fe5b9060005260206000209060030201600091509050806000015490806001018054600181600116156101000203166002900480601f016020809104026020016040519081016040528092919081815260200182805460018160011615610100020316600290048015610bb95780601f10610b8e57610100808354040283529160200191610bb9565b820191906000526020600020905b815481529060010190602001808311610b9c57829003601f168201915b5050505050908060020160009054906101000a900473ffffffffffffffffffffffffffffffffffffffff16905083565b60038054600181600116156101000203166002900480601f016020809104026020016040519081016040528092919081815260200182805460018160011615610100020316600290048015610c7f5780601f10610c5457610100808354040283529160200191610c7f565b820191906000526020600020905b815481529060010190602001808311610c6257829003601f168201915b505050505081565b60008060006101000a81548160ff021916908315150217905550565b828054600181600116156101000203166002900490600052602060002090601f016020900481019282601f10610ce457805160ff1916838001178555610d12565b82800160010185558215610d12579182015b82811115610d11578251825591602001919060010190610cf6565b5b509050610d1f9190610d23565b5090565b610d4591905b80821115610d41576000816000905550600101610d29565b5090565b9056fea165627a7a72305820086d0dbc9b144ffa3e88efffb995918688f34e768886cb36a4790616b20372b20029",
  "source": "pragma solidity 0.5.0;\r\n\r\n\r\ncontract election {\r\n\r\n    bool public votingStatus;\r\n    Candidate[] public candidates;\r\n    Voter[] public voters;\r\n    string public winner;\r\n\r\n    uint public voterCount;\r\n    uint public candidateCount;\r\n\r\n    mapping(address => bool) public isVoted;\r\n\r\n    struct Voter {\r\n        uint id;\r\n        string name;\r\n        address voter;\r\n    }\r\n\r\n    struct Candidate {\r\n        uint id;\r\n        string name;\r\n        uint voteCount;\r\n    }\r\n\r\n    function addCandidate(string memory _name) public {\r\n        candidateCount++;\r\n        candidates.push(Candidate(candidateCount,_name,0));\r\n    }\r\n\r\n    function addVoter(string memory _name, address _address) public {\r\n        voterCount++;\r\n        voters.push(Voter(voterCount,_name,_address));\r\n    }\r\n\r\n    function startVoting() public {\r\n        votingStatus = true;\r\n    }\r\n\r\n    function stopVoting() public {\r\n        votingStatus = false;\r\n    }\r\n\r\n    function castVote(uint _candidateId) public {\r\n        require(votingStatus == true,\"voting is not in progress Ask your admin to start voting\");\r\n\r\n        require(isVoted[msg.sender] == false,\"You have already voted\");\r\n\r\n        for(uint i = 0; i<candidateCount; i++) {\r\n          if(_candidateId == candidates[i].id){\r\n               candidates[i].voteCount++;\r\n               isVoted[msg.sender] = true;\r\n            }\r\n        }\r\n    }\r\n}",
  "sourcePath": "G:/Blockchain/Ethereum Projects/Voting DApp/contracts/election.sol",
  "compiler": {
    "name": "solc",
    "version": "0.5.0+commit.1d4f565a.Emscripten.clang"
  },
  "schemaVersion": "3.0.1",
  "updatedAt": "2019-08-09T18:15:18.517Z",
  "devdoc": {
    "methods": {}
  },
  "userdoc": {
    "methods": {}
  }
}